{
  "_format": "hh-sol-artifact-1",
  "contractName": "LotteryCoreFacet",
  "sourceName": "contracts/LotteryCoreFacet.sol",
  "abi": [
    {
      "anonymous": false,
      "inputs": [
        {
          "indexed": true,
          "internalType": "uint256",
          "name": "lotteryId",
          "type": "uint256"
        }
      ],
      "name": "LotteryCanceled",
      "type": "event"
    },
    {
      "anonymous": false,
      "inputs": [
        {
          "indexed": true,
          "internalType": "uint256",
          "name": "lotteryId",
          "type": "uint256"
        }
      ],
      "name": "LotteryCreated",
      "type": "event"
    },
    {
      "anonymous": false,
      "inputs": [
        {
          "indexed": true,
          "internalType": "uint256",
          "name": "lotteryId",
          "type": "uint256"
        }
      ],
      "name": "LotteryFinalized",
      "type": "event"
    },
    {
      "anonymous": false,
      "inputs": [
        {
          "indexed": true,
          "internalType": "uint256",
          "name": "lotteryId",
          "type": "uint256"
        },
        {
          "indexed": true,
          "internalType": "address",
          "name": "user",
          "type": "address"
        },
        {
          "indexed": false,
          "internalType": "bytes32",
          "name": "committedNumber",
          "type": "bytes32"
        }
      ],
      "name": "RandomNumberCommitted",
      "type": "event"
    },
    {
      "anonymous": false,
      "inputs": [
        {
          "indexed": true,
          "internalType": "uint256",
          "name": "lotteryId",
          "type": "uint256"
        },
        {
          "indexed": true,
          "internalType": "address",
          "name": "user",
          "type": "address"
        }
      ],
      "name": "RandomNumberRevealed",
      "type": "event"
    },
    {
      "anonymous": false,
      "inputs": [
        {
          "indexed": true,
          "internalType": "uint256",
          "name": "lotteryId",
          "type": "uint256"
        },
        {
          "indexed": true,
          "internalType": "address",
          "name": "user",
          "type": "address"
        },
        {
          "indexed": false,
          "internalType": "uint256",
          "name": "amount",
          "type": "uint256"
        }
      ],
      "name": "RefundClaimed",
      "type": "event"
    },
    {
      "anonymous": false,
      "inputs": [
        {
          "indexed": true,
          "internalType": "uint256",
          "name": "lotteryId",
          "type": "uint256"
        },
        {
          "indexed": true,
          "internalType": "address",
          "name": "buyer",
          "type": "address"
        },
        {
          "indexed": false,
          "internalType": "uint256",
          "name": "ticketCount",
          "type": "uint256"
        }
      ],
      "name": "TicketsPurchased",
      "type": "event"
    },
    {
      "anonymous": false,
      "inputs": [
        {
          "indexed": true,
          "internalType": "uint256",
          "name": "lotteryId",
          "type": "uint256"
        }
      ],
      "name": "WinnersDetermined",
      "type": "event"
    },
    {
      "inputs": [
        {
          "internalType": "uint256",
          "name": "lottery_no",
          "type": "uint256"
        },
        {
          "internalType": "uint256",
          "name": "quantity",
          "type": "uint256"
        },
        {
          "internalType": "bytes32",
          "name": "hash_rnd_number",
          "type": "bytes32"
        }
      ],
      "name": "buyTicketTx",
      "outputs": [
        {
          "internalType": "uint256",
          "name": "",
          "type": "uint256"
        }
      ],
      "stateMutability": "nonpayable",
      "type": "function"
    },
    {
      "inputs": [
        {
          "internalType": "uint256",
          "name": "unixend",
          "type": "uint256"
        },
        {
          "internalType": "uint256",
          "name": "nooftickets",
          "type": "uint256"
        },
        {
          "internalType": "uint256",
          "name": "noofwinners",
          "type": "uint256"
        },
        {
          "internalType": "uint256",
          "name": "minpercentage",
          "type": "uint256"
        },
        {
          "internalType": "uint256",
          "name": "ticketprice",
          "type": "uint256"
        },
        {
          "internalType": "bytes32",
          "name": "htmlhash",
          "type": "bytes32"
        },
        {
          "internalType": "string",
          "name": "url",
          "type": "string"
        }
      ],
      "name": "createLottery",
      "outputs": [
        {
          "internalType": "uint256",
          "name": "",
          "type": "uint256"
        }
      ],
      "stateMutability": "nonpayable",
      "type": "function"
    },
    {
      "inputs": [
        {
          "internalType": "uint256",
          "name": "lotteryId",
          "type": "uint256"
        }
      ],
      "name": "getCurrentStage",
      "outputs": [
        {
          "internalType": "enum LotteryCoreFacet.LotteryStage",
          "name": "",
          "type": "uint8"
        }
      ],
      "stateMutability": "view",
      "type": "function"
    }
  ],
  "bytecode": "0x608060405234801561001057600080fd5b50611539806100206000396000f3fe608060405234801561001057600080fd5b50600436106100415760003560e01c80632458d472146100465780637df858db14610076578063e0767cd9146100a6575b600080fd5b610060600480360381019061005b91906108d5565b6100d6565b60405161006d9190610979565b60405180910390f35b610090600480360381019061008b9190610b10565b6101a9565b60405161009d9190610bdd565b60405180910390f35b6100c060048036038101906100bb9190610bf8565b6104a7565b6040516100cd9190610bdd565b60405180910390f35b6000806100e161085e565b9050600081600301600085815260200190815260200160002090508060090160009054906101000a900460ff168061012757508060090160019054906101000a900460ff165b15610137576002925050506101a4565b600060028260000154836001015461014f9190610c7a565b6101599190610cdd565b9050600081836001015461016d9190610c7a565b90508042116101835760009450505050506101a4565b8260010154421161019b5760019450505050506101a4565b60029450505050505b919050565b60006101b361085e565b60000160009054906101000a900473ffffffffffffffffffffffffffffffffffffffff1673ffffffffffffffffffffffffffffffffffffffff163373ffffffffffffffffffffffffffffffffffffffff1614610244576040517f08c379a000000000000000000000000000000000000000000000000000000000815260040161023b90610d6b565b60405180910390fd5b428811610286576040517f08c379a000000000000000000000000000000000000000000000000000000000815260040161027d90610dd7565b60405180910390fd5b6000861180156102965750868611155b6102d5576040517f08c379a00000000000000000000000000000000000000000000000000000000081526004016102cc90610e43565b60405180910390fd5b6000851180156102e6575060648511155b610325576040517f08c379a000000000000000000000000000000000000000000000000000000000815260040161031c90610eaf565b60405180910390fd5b600061032f61085e565b905080600101600081548092919061034690610ecf565b91905055506040518061016001604052804281526020018a8152602001898152602001600081526020018881526020018781526020018681526020018581526020018481526020016000151581526020016000151581525081600301600083600101548152602001908152602001600020600082015181600001556020820151816001015560408201518160020155606082015181600301556080820151816004015560a0820151816005015560c0820151816006015560e0820151816007015561010082015181600801908161041d919061112e565b506101208201518160090160006101000a81548160ff0219169083151502179055506101408201518160090160016101000a81548160ff02191690831515021790555090505080600101547f9e0023bebcc752baaa41057318405b5a6a8e9c6372b519717cfdf238e5caa79560405160405180910390a28060010154915050979650505050505050565b6000806104b261085e565b9050600081600301600087815260200190815260200160002090506000851180156104de5750601e8511155b61051d576040517f08c379a00000000000000000000000000000000000000000000000000000000081526004016105149061124c565b60405180910390fd5b8060020154858260030154610532919061126c565b1115610573576040517f08c379a000000000000000000000000000000000000000000000000000000000815260040161056a906112ec565b60405180910390fd5b6000600281111561058757610586610902565b5b610590876100d6565b60028111156105a2576105a1610902565b5b146105e2576040517f08c379a00000000000000000000000000000000000000000000000000000000081526004016105d990611358565b60405180910390fd5b60008160060154866105f49190611378565b90508260020160009054906101000a900473ffffffffffffffffffffffffffffffffffffffff1673ffffffffffffffffffffffffffffffffffffffff166323b872dd3330846040518463ffffffff1660e01b8152600401610657939291906113fb565b6020604051808303816000875af1158015610676573d6000803e3d6000fd5b505050506040513d601f19601f8201168201806040525081019061069a919061146a565b6106d9576040517f08c379a00000000000000000000000000000000000000000000000000000000081526004016106d0906114e3565b60405180910390fd5b600083600401600089815260200190815260200160002060003373ffffffffffffffffffffffffffffffffffffffff1673ffffffffffffffffffffffffffffffffffffffff168152602001908152602001600020905086816000016000828254610743919061126c565b9250508190555085816001018190555086836003016000828254610767919061126c565b92505081905550338460060160008a815260200190815260200160002060008660070154815260200190815260200160002060006101000a81548173ffffffffffffffffffffffffffffffffffffffff021916908373ffffffffffffffffffffffffffffffffffffffff1602179055508360070160008154809291906107ec90610ecf565b91905055503373ffffffffffffffffffffffffffffffffffffffff16887ff7c58d5e745042ae3ed41454214210ae1bca7e4a2087c19a3fb2cfc0ed7648e7896040516108389190610bdd565b60405180910390a3600184600701546108519190610c7a565b9450505050509392505050565b6000807f21f0097f3705b0fcf08c9e85ce553e82392510f6683a61f1805c5f376be88a5d90508091505090565b6000604051905090565b600080fd5b600080fd5b6000819050919050565b6108b28161089f565b81146108bd57600080fd5b50565b6000813590506108cf816108a9565b92915050565b6000602082840312156108eb576108ea610895565b5b60006108f9848285016108c0565b91505092915050565b7f4e487b7100000000000000000000000000000000000000000000000000000000600052602160045260246000fd5b6003811061094257610941610902565b5b50565b600081905061095382610931565b919050565b600061096382610945565b9050919050565b61097381610958565b82525050565b600060208201905061098e600083018461096a565b92915050565b6000819050919050565b6109a781610994565b81146109b257600080fd5b50565b6000813590506109c48161099e565b92915050565b600080fd5b600080fd5b6000601f19601f8301169050919050565b7f4e487b7100000000000000000000000000000000000000000000000000000000600052604160045260246000fd5b610a1d826109d4565b810181811067ffffffffffffffff82111715610a3c57610a3b6109e5565b5b80604052505050565b6000610a4f61088b565b9050610a5b8282610a14565b919050565b600067ffffffffffffffff821115610a7b57610a7a6109e5565b5b610a84826109d4565b9050602081019050919050565b82818337600083830152505050565b6000610ab3610aae84610a60565b610a45565b905082815260208101848484011115610acf57610ace6109cf565b5b610ada848285610a91565b509392505050565b600082601f830112610af757610af66109ca565b5b8135610b07848260208601610aa0565b91505092915050565b600080600080600080600060e0888a031215610b2f57610b2e610895565b5b6000610b3d8a828b016108c0565b9750506020610b4e8a828b016108c0565b9650506040610b5f8a828b016108c0565b9550506060610b708a828b016108c0565b9450506080610b818a828b016108c0565b93505060a0610b928a828b016109b5565b92505060c088013567ffffffffffffffff811115610bb357610bb261089a565b5b610bbf8a828b01610ae2565b91505092959891949750929550565b610bd78161089f565b82525050565b6000602082019050610bf26000830184610bce565b92915050565b600080600060608486031215610c1157610c10610895565b5b6000610c1f868287016108c0565b9350506020610c30868287016108c0565b9250506040610c41868287016109b5565b9150509250925092565b7f4e487b7100000000000000000000000000000000000000000000000000000000600052601160045260246000fd5b6000610c858261089f565b9150610c908361089f565b9250828203905081811115610ca857610ca7610c4b565b5b92915050565b7f4e487b7100000000000000000000000000000000000000000000000000000000600052601260045260246000fd5b6000610ce88261089f565b9150610cf38361089f565b925082610d0357610d02610cae565b5b828204905092915050565b600082825260208201905092915050565b7f4e6f7420746865206f776e657200000000000000000000000000000000000000600082015250565b6000610d55600d83610d0e565b9150610d6082610d1f565b602082019050919050565b60006020820190508181036000830152610d8481610d48565b9050919050565b7f456e642074696d65206d75737420626520696e20667574757265000000000000600082015250565b6000610dc1601a83610d0e565b9150610dcc82610d8b565b602082019050919050565b60006020820190508181036000830152610df081610db4565b9050919050565b7f496e76616c69642077696e6e65727320636f756e740000000000000000000000600082015250565b6000610e2d601583610d0e565b9150610e3882610df7565b602082019050919050565b60006020820190508181036000830152610e5c81610e20565b9050919050565b7f496e76616c6964206d696e696d756d2070657263656e74616765000000000000600082015250565b6000610e99601a83610d0e565b9150610ea482610e63565b602082019050919050565b60006020820190508181036000830152610ec881610e8c565b9050919050565b6000610eda8261089f565b91507fffffffffffffffffffffffffffffffffffffffffffffffffffffffffffffffff8203610f0c57610f0b610c4b565b5b600182019050919050565b600081519050919050565b7f4e487b7100000000000000000000000000000000000000000000000000000000600052602260045260246000fd5b60006002820490506001821680610f6957607f821691505b602082108103610f7c57610f7b610f22565b5b50919050565b60008190508160005260206000209050919050565b60006020601f8301049050919050565b600082821b905092915050565b600060088302610fe47fffffffffffffffffffffffffffffffffffffffffffffffffffffffffffffffff82610fa7565b610fee8683610fa7565b95508019841693508086168417925050509392505050565b6000819050919050565b600061102b6110266110218461089f565b611006565b61089f565b9050919050565b6000819050919050565b61104583611010565b61105961105182611032565b848454610fb4565b825550505050565b600090565b61106e611061565b61107981848461103c565b505050565b5b8181101561109d57611092600082611066565b60018101905061107f565b5050565b601f8211156110e2576110b381610f82565b6110bc84610f97565b810160208510156110cb578190505b6110df6110d785610f97565b83018261107e565b50505b505050565b600082821c905092915050565b6000611105600019846008026110e7565b1980831691505092915050565b600061111e83836110f4565b9150826002028217905092915050565b61113782610f17565b67ffffffffffffffff8111156111505761114f6109e5565b5b61115a8254610f51565b6111658282856110a1565b600060209050601f8311600181146111985760008415611186578287015190505b6111908582611112565b8655506111f8565b601f1984166111a686610f82565b60005b828110156111ce578489015182556001820191506020850194506020810190506111a9565b868310156111eb57848901516111e7601f8916826110f4565b8355505b6001600288020188555050505b505050505050565b7f496e76616c6964207469636b657420636f756e74000000000000000000000000600082015250565b6000611236601483610d0e565b915061124182611200565b602082019050919050565b6000602082019050818103600083015261126581611229565b9050919050565b60006112778261089f565b91506112828361089f565b925082820190508082111561129a57611299610c4b565b5b92915050565b7f4578636565647320746f74616c207469636b6574730000000000000000000000600082015250565b60006112d6601583610d0e565b91506112e1826112a0565b602082019050919050565b60006020820190508181036000830152611305816112c9565b9050919050565b7f496e76616c696420737461676500000000000000000000000000000000000000600082015250565b6000611342600d83610d0e565b915061134d8261130c565b602082019050919050565b6000602082019050818103600083015261137181611335565b9050919050565b60006113838261089f565b915061138e8361089f565b925082820261139c8161089f565b915082820484148315176113b3576113b2610c4b565b5b5092915050565b600073ffffffffffffffffffffffffffffffffffffffff82169050919050565b60006113e5826113ba565b9050919050565b6113f5816113da565b82525050565b600060608201905061141060008301866113ec565b61141d60208301856113ec565b61142a6040830184610bce565b949350505050565b60008115159050919050565b61144781611432565b811461145257600080fd5b50565b6000815190506114648161143e565b92915050565b6000602082840312156114805761147f610895565b5b600061148e84828501611455565b91505092915050565b7f5061796d656e74206661696c6564000000000000000000000000000000000000600082015250565b60006114cd600e83610d0e565b91506114d882611497565b602082019050919050565b600060208201905081810360008301526114fc816114c0565b905091905056fea264697066735822122001bfcb2783008b1e3951adc08284dbb643c85f6376effb8d474bea6b3451611a64736f6c63430008140033",
  "linkReferences": {},
  "deployedLinkReferences": {}
}