{
  "_format": "hh-sol-artifact-1",
  "contractName": "LotteryAdminFacet",
  "sourceName": "contracts/LotteryAdminFacet.sol",
  "abi": [
    {
      "inputs": [
        {
          "internalType": "address",
          "name": "erctokenaddr",
          "type": "address"
        }
      ],
      "name": "setPaymentToken",
      "outputs": [],
      "stateMutability": "nonpayable",
      "type": "function"
    },
    {
      "inputs": [
        {
          "internalType": "uint256",
          "name": "lottery_no",
          "type": "uint256"
        }
      ],
      "name": "withdrawTicketProceeds",
      "outputs": [],
      "stateMutability": "nonpayable",
      "type": "function"
    }
  ],
  "bytecode": "0x608060405234801561001057600080fd5b5061076e806100206000396000f3fe608060405234801561001057600080fd5b50600436106100365760003560e01c80636a326ab11461003b578063ad943d1e14610057575b600080fd5b61005560048036038101906100509190610436565b610073565b005b610071600480360381019061006c9190610499565b610159565b005b61007b6103a6565b60000160009054906101000a900473ffffffffffffffffffffffffffffffffffffffff1673ffffffffffffffffffffffffffffffffffffffff163373ffffffffffffffffffffffffffffffffffffffff161461010c576040517f08c379a000000000000000000000000000000000000000000000000000000000815260040161010390610523565b60405180910390fd5b806101156103a6565b60020160006101000a81548173ffffffffffffffffffffffffffffffffffffffff021916908373ffffffffffffffffffffffffffffffffffffffff16021790555050565b6101616103a6565b60000160009054906101000a900473ffffffffffffffffffffffffffffffffffffffff1673ffffffffffffffffffffffffffffffffffffffff163373ffffffffffffffffffffffffffffffffffffffff16146101f2576040517f08c379a00000000000000000000000000000000000000000000000000000000081526004016101e990610523565b60405180910390fd5b60006101fc6103a6565b9050600081600301600084815260200190815260200160002090508060090160019054906101000a900460ff16801561024457508060090160009054906101000a900460ff16155b610283576040517f08c379a000000000000000000000000000000000000000000000000000000000815260040161027a9061058f565b60405180910390fd5b60008160060154826003015461029991906105de565b90508260020160009054906101000a900473ffffffffffffffffffffffffffffffffffffffff1673ffffffffffffffffffffffffffffffffffffffff1663a9059cbb8460000160009054906101000a900473ffffffffffffffffffffffffffffffffffffffff16836040518363ffffffff1660e01b815260040161031e92919061063e565b6020604051808303816000875af115801561033d573d6000803e3d6000fd5b505050506040513d601f19601f82011682018060405250810190610361919061069f565b6103a0576040517f08c379a000000000000000000000000000000000000000000000000000000000815260040161039790610718565b60405180910390fd5b50505050565b6000807f21f0097f3705b0fcf08c9e85ce553e82392510f6683a61f1805c5f376be88a5d90508091505090565b600080fd5b600073ffffffffffffffffffffffffffffffffffffffff82169050919050565b6000610403826103d8565b9050919050565b610413816103f8565b811461041e57600080fd5b50565b6000813590506104308161040a565b92915050565b60006020828403121561044c5761044b6103d3565b5b600061045a84828501610421565b91505092915050565b6000819050919050565b61047681610463565b811461048157600080fd5b50565b6000813590506104938161046d565b92915050565b6000602082840312156104af576104ae6103d3565b5b60006104bd84828501610484565b91505092915050565b600082825260208201905092915050565b7f4e6f7420746865206f776e657200000000000000000000000000000000000000600082015250565b600061050d600d836104c6565b9150610518826104d7565b602082019050919050565b6000602082019050818103600083015261053c81610500565b9050919050565b7f4c6f7474657279206e6f7420656c696769626c65000000000000000000000000600082015250565b60006105796014836104c6565b915061058482610543565b602082019050919050565b600060208201905081810360008301526105a88161056c565b9050919050565b7f4e487b7100000000000000000000000000000000000000000000000000000000600052601160045260246000fd5b60006105e982610463565b91506105f483610463565b925082820261060281610463565b91508282048414831517610619576106186105af565b5b5092915050565b610629816103f8565b82525050565b61063881610463565b82525050565b60006040820190506106536000830185610620565b610660602083018461062f565b9392505050565b60008115159050919050565b61067c81610667565b811461068757600080fd5b50565b60008151905061069981610673565b92915050565b6000602082840312156106b5576106b46103d3565b5b60006106c38482850161068a565b91505092915050565b7f50726f6365656473207472616e73666572206661696c65640000000000000000600082015250565b60006107026018836104c6565b915061070d826106cc565b602082019050919050565b60006020820190508181036000830152610731816106f5565b905091905056fea264697066735822122098e219d298a00ae22b0c8f72dc13084078d077a922fe3c50733ddab3d474954564736f6c63430008140033",
  "linkReferences": {},
  "deployedLinkReferences": {}
}