{
  "_format": "hh-sol-artifact-1",
  "contractName": "LotteryRevealFacet",
  "sourceName": "contracts/LotteryRevealFacet.sol",
  "abi": [
    {
      "anonymous": false,
      "inputs": [
        {
          "indexed": true,
          "internalType": "uint256",
          "name": "lotteryId",
          "type": "uint256"
        },
        {
          "indexed": true,
          "internalType": "address",
          "name": "user",
          "type": "address"
        }
      ],
      "name": "RandomNumberRevealed",
      "type": "event"
    },
    {
      "inputs": [
        {
          "internalType": "uint256",
          "name": "lottery_no",
          "type": "uint256"
        },
        {
          "internalType": "uint256",
          "name": "sticketno",
          "type": "uint256"
        },
        {
          "internalType": "uint256",
          "name": "quantity",
          "type": "uint256"
        },
        {
          "internalType": "uint256",
          "name": "rnd_number",
          "type": "uint256"
        }
      ],
      "name": "revealRndNumberTx",
      "outputs": [],
      "stateMutability": "nonpayable",
      "type": "function"
    }
  ],
  "bytecode": "0x608060405234801561001057600080fd5b50610608806100206000396000f3fe608060405234801561001057600080fd5b506004361061002b5760003560e01c80639065c33514610030575b600080fd5b61004a6004803603810190610045919061032f565b61004c565b005b6000610056610244565b9050600081600401600087815260200190815260200160002060003373ffffffffffffffffffffffffffffffffffffffff1673ffffffffffffffffffffffffffffffffffffffff1681526020019081526020016000209050600160028111156100c2576100c1610396565b5b6100cb87610271565b60028111156100dd576100dc610396565b5b1461011d576040517f08c379a000000000000000000000000000000000000000000000000000000000815260040161011490610422565b60405180910390fd5b8060020160009054906101000a900460ff161561016f576040517f08c379a00000000000000000000000000000000000000000000000000000000081526004016101669061048e565b60405180910390fd5b80600101548360405160200161018591906104cf565b60405160208183030381529060405280519060200120146101db576040517f08c379a00000000000000000000000000000000000000000000000000000000081526004016101d290610536565b60405180910390fd5b60018160020160006101000a81548160ff0219169083151502179055503373ffffffffffffffffffffffffffffffffffffffff16867f4374a81e5bd18105554f1425f9d6988895dcf5bfacb5f4f30b57edc2012302e260405160405180910390a3505050505050565b6000807f21f0097f3705b0fcf08c9e85ce553e82392510f6683a61f1805c5f376be88a5d90508091505090565b60003073ffffffffffffffffffffffffffffffffffffffff16632458d472836040518263ffffffff1660e01b81526004016102ac9190610565565b602060405180830381865afa1580156102c9573d6000803e3d6000fd5b505050506040513d601f19601f820116820180604052508101906102ed91906105a5565b9050919050565b600080fd5b6000819050919050565b61030c816102f9565b811461031757600080fd5b50565b60008135905061032981610303565b92915050565b60008060008060808587031215610349576103486102f4565b5b60006103578782880161031a565b94505060206103688782880161031a565b93505060406103798782880161031a565b925050606061038a8782880161031a565b91505092959194509250565b7f4e487b7100000000000000000000000000000000000000000000000000000000600052602160045260246000fd5b600082825260208201905092915050565b7f496e76616c696420737461676500000000000000000000000000000000000000600082015250565b600061040c600d836103c5565b9150610417826103d6565b602082019050919050565b6000602082019050818103600083015261043b816103ff565b9050919050565b7f416c72656164792072657665616c656400000000000000000000000000000000600082015250565b60006104786010836103c5565b915061048382610442565b602082019050919050565b600060208201905081810360008301526104a78161046b565b9050919050565b6000819050919050565b6104c96104c4826102f9565b6104ae565b82525050565b60006104db82846104b8565b60208201915081905092915050565b7f496e76616c69642072657665616c000000000000000000000000000000000000600082015250565b6000610520600e836103c5565b915061052b826104ea565b602082019050919050565b6000602082019050818103600083015261054f81610513565b9050919050565b61055f816102f9565b82525050565b600060208201905061057a6000830184610556565b92915050565b6003811061058d57600080fd5b50565b60008151905061059f81610580565b92915050565b6000602082840312156105bb576105ba6102f4565b5b60006105c984828501610590565b9150509291505056fea26469706673582212200aed0cc33d00311dff31621af6d85acf29828e0c88ce8c7ba32d7e1292b9295464736f6c63430008140033",
  "linkReferences": {},
  "deployedLinkReferences": {}
}