{
  "_format": "hh-sol-artifact-1",
  "contractName": "CompanyLotteries",
  "sourceName": "contracts/CompanyLotteries.sol",
  "abi": [
    {
      "inputs": [],
      "stateMutability": "nonpayable",
      "type": "constructor"
    },
    {
      "anonymous": false,
      "inputs": [
        {
          "indexed": true,
          "internalType": "uint256",
          "name": "lotteryId",
          "type": "uint256"
        }
      ],
      "name": "LotteryCanceled",
      "type": "event"
    },
    {
      "anonymous": false,
      "inputs": [
        {
          "indexed": true,
          "internalType": "uint256",
          "name": "lotteryId",
          "type": "uint256"
        }
      ],
      "name": "LotteryCreated",
      "type": "event"
    },
    {
      "anonymous": false,
      "inputs": [
        {
          "indexed": true,
          "internalType": "uint256",
          "name": "lotteryId",
          "type": "uint256"
        }
      ],
      "name": "LotteryFinalized",
      "type": "event"
    },
    {
      "anonymous": false,
      "inputs": [
        {
          "indexed": true,
          "internalType": "uint256",
          "name": "lotteryId",
          "type": "uint256"
        },
        {
          "indexed": true,
          "internalType": "address",
          "name": "user",
          "type": "address"
        },
        {
          "indexed": false,
          "internalType": "bytes32",
          "name": "committedNumber",
          "type": "bytes32"
        }
      ],
      "name": "RandomNumberCommitted",
      "type": "event"
    },
    {
      "anonymous": false,
      "inputs": [
        {
          "indexed": true,
          "internalType": "uint256",
          "name": "lotteryId",
          "type": "uint256"
        },
        {
          "indexed": true,
          "internalType": "address",
          "name": "user",
          "type": "address"
        }
      ],
      "name": "RandomNumberRevealed",
      "type": "event"
    },
    {
      "anonymous": false,
      "inputs": [
        {
          "indexed": true,
          "internalType": "uint256",
          "name": "lotteryId",
          "type": "uint256"
        },
        {
          "indexed": true,
          "internalType": "address",
          "name": "user",
          "type": "address"
        },
        {
          "indexed": false,
          "internalType": "uint256",
          "name": "amount",
          "type": "uint256"
        }
      ],
      "name": "RefundClaimed",
      "type": "event"
    },
    {
      "anonymous": false,
      "inputs": [
        {
          "indexed": true,
          "internalType": "uint256",
          "name": "lotteryId",
          "type": "uint256"
        },
        {
          "indexed": true,
          "internalType": "address",
          "name": "buyer",
          "type": "address"
        },
        {
          "indexed": false,
          "internalType": "uint256",
          "name": "ticketCount",
          "type": "uint256"
        }
      ],
      "name": "TicketsPurchased",
      "type": "event"
    },
    {
      "anonymous": false,
      "inputs": [
        {
          "indexed": true,
          "internalType": "uint256",
          "name": "lotteryId",
          "type": "uint256"
        }
      ],
      "name": "WinnersDetermined",
      "type": "event"
    },
    {
      "inputs": [
        {
          "internalType": "uint256",
          "name": "lottery_no",
          "type": "uint256"
        },
        {
          "internalType": "uint256",
          "name": "quantity",
          "type": "uint256"
        },
        {
          "internalType": "bytes32",
          "name": "hash_rnd_number",
          "type": "bytes32"
        }
      ],
      "name": "buyTicketTx",
      "outputs": [
        {
          "internalType": "uint256",
          "name": "sticketno",
          "type": "uint256"
        }
      ],
      "stateMutability": "nonpayable",
      "type": "function"
    },
    {
      "inputs": [
        {
          "internalType": "address",
          "name": "addr",
          "type": "address"
        },
        {
          "internalType": "uint256",
          "name": "lottery_no",
          "type": "uint256"
        },
        {
          "internalType": "uint256",
          "name": "ticket_no",
          "type": "uint256"
        }
      ],
      "name": "checkIfAddrTicketWon",
      "outputs": [
        {
          "internalType": "bool",
          "name": "won",
          "type": "bool"
        }
      ],
      "stateMutability": "view",
      "type": "function"
    },
    {
      "inputs": [
        {
          "internalType": "uint256",
          "name": "lottery_no",
          "type": "uint256"
        },
        {
          "internalType": "uint256",
          "name": "ticket_no",
          "type": "uint256"
        }
      ],
      "name": "checkIfMyTicketWon",
      "outputs": [
        {
          "internalType": "bool",
          "name": "won",
          "type": "bool"
        }
      ],
      "stateMutability": "view",
      "type": "function"
    },
    {
      "inputs": [
        {
          "internalType": "uint256",
          "name": "unixend",
          "type": "uint256"
        },
        {
          "internalType": "uint256",
          "name": "nooftickets",
          "type": "uint256"
        },
        {
          "internalType": "uint256",
          "name": "noofwinners",
          "type": "uint256"
        },
        {
          "internalType": "uint256",
          "name": "minpercentage",
          "type": "uint256"
        },
        {
          "internalType": "uint256",
          "name": "ticketprice",
          "type": "uint256"
        },
        {
          "internalType": "bytes32",
          "name": "htmlhash",
          "type": "bytes32"
        },
        {
          "internalType": "string",
          "name": "url",
          "type": "string"
        }
      ],
      "name": "createLottery",
      "outputs": [
        {
          "internalType": "uint256",
          "name": "",
          "type": "uint256"
        }
      ],
      "stateMutability": "nonpayable",
      "type": "function"
    },
    {
      "inputs": [],
      "name": "currentLotteryNo",
      "outputs": [
        {
          "internalType": "uint256",
          "name": "",
          "type": "uint256"
        }
      ],
      "stateMutability": "view",
      "type": "function"
    },
    {
      "inputs": [],
      "name": "getCurrentLotteryNo",
      "outputs": [
        {
          "internalType": "uint256",
          "name": "lottery_no",
          "type": "uint256"
        }
      ],
      "stateMutability": "view",
      "type": "function"
    },
    {
      "inputs": [
        {
          "internalType": "uint256",
          "name": "lotteryId",
          "type": "uint256"
        }
      ],
      "name": "getCurrentStage",
      "outputs": [
        {
          "internalType": "enum CompanyLotteries.LotteryStage",
          "name": "",
          "type": "uint8"
        }
      ],
      "stateMutability": "view",
      "type": "function"
    },
    {
      "inputs": [
        {
          "internalType": "uint256",
          "name": "i",
          "type": "uint256"
        },
        {
          "internalType": "uint256",
          "name": "lottery_no",
          "type": "uint256"
        }
      ],
      "name": "getIthPurchasedTicketTx",
      "outputs": [
        {
          "internalType": "uint256",
          "name": "sticketno",
          "type": "uint256"
        },
        {
          "internalType": "uint256",
          "name": "quantity",
          "type": "uint256"
        }
      ],
      "stateMutability": "view",
      "type": "function"
    },
    {
      "inputs": [
        {
          "internalType": "uint256",
          "name": "lottery_no",
          "type": "uint256"
        },
        {
          "internalType": "uint256",
          "name": "i",
          "type": "uint256"
        }
      ],
      "name": "getIthWinningTicket",
      "outputs": [
        {
          "internalType": "uint256",
          "name": "ticketno",
          "type": "uint256"
        }
      ],
      "stateMutability": "view",
      "type": "function"
    },
    {
      "inputs": [
        {
          "internalType": "uint256",
          "name": "lottery_no",
          "type": "uint256"
        }
      ],
      "name": "getLotteryInfo",
      "outputs": [
        {
          "internalType": "uint256",
          "name": "unixend",
          "type": "uint256"
        },
        {
          "internalType": "uint256",
          "name": "nooftickets",
          "type": "uint256"
        },
        {
          "internalType": "uint256",
          "name": "noofwinners",
          "type": "uint256"
        },
        {
          "internalType": "uint256",
          "name": "minpercentage",
          "type": "uint256"
        },
        {
          "internalType": "uint256",
          "name": "ticketprice",
          "type": "uint256"
        }
      ],
      "stateMutability": "view",
      "type": "function"
    },
    {
      "inputs": [
        {
          "internalType": "uint256",
          "name": "lottery_no",
          "type": "uint256"
        }
      ],
      "name": "getLotterySales",
      "outputs": [
        {
          "internalType": "uint256",
          "name": "numsold",
          "type": "uint256"
        }
      ],
      "stateMutability": "view",
      "type": "function"
    },
    {
      "inputs": [
        {
          "internalType": "uint256",
          "name": "lottery_no",
          "type": "uint256"
        }
      ],
      "name": "getLotteryURL",
      "outputs": [
        {
          "internalType": "bytes32",
          "name": "htmlhash",
          "type": "bytes32"
        },
        {
          "internalType": "string",
          "name": "url",
          "type": "string"
        }
      ],
      "stateMutability": "view",
      "type": "function"
    },
    {
      "inputs": [
        {
          "internalType": "uint256",
          "name": "lottery_no",
          "type": "uint256"
        }
      ],
      "name": "getNumPurchaseTxs",
      "outputs": [
        {
          "internalType": "uint256",
          "name": "numpurchasetxs",
          "type": "uint256"
        }
      ],
      "stateMutability": "view",
      "type": "function"
    },
    {
      "inputs": [
        {
          "internalType": "uint256",
          "name": "lottery_no",
          "type": "uint256"
        }
      ],
      "name": "getPaymentToken",
      "outputs": [
        {
          "internalType": "address",
          "name": "erctokenaddr",
          "type": "address"
        }
      ],
      "stateMutability": "view",
      "type": "function"
    },
    {
      "inputs": [
        {
          "internalType": "uint256",
          "name": "",
          "type": "uint256"
        }
      ],
      "name": "lotteries",
      "outputs": [
        {
          "internalType": "uint256",
          "name": "beginTime",
          "type": "uint256"
        },
        {
          "internalType": "uint256",
          "name": "endTime",
          "type": "uint256"
        },
        {
          "internalType": "uint256",
          "name": "totalTickets",
          "type": "uint256"
        },
        {
          "internalType": "uint256",
          "name": "purchasedTickets",
          "type": "uint256"
        },
        {
          "internalType": "uint256",
          "name": "winnersCount",
          "type": "uint256"
        },
        {
          "internalType": "uint256",
          "name": "minTicketPercentage",
          "type": "uint256"
        },
        {
          "internalType": "uint256",
          "name": "ticketPrice",
          "type": "uint256"
        },
        {
          "internalType": "bytes32",
          "name": "lotteryDescHash",
          "type": "bytes32"
        },
        {
          "internalType": "string",
          "name": "lotteryDescUrl",
          "type": "string"
        },
        {
          "internalType": "bool",
          "name": "isCanceled",
          "type": "bool"
        },
        {
          "internalType": "bool",
          "name": "isFinalized",
          "type": "bool"
        }
      ],
      "stateMutability": "view",
      "type": "function"
    },
    {
      "inputs": [
        {
          "internalType": "uint256",
          "name": "",
          "type": "uint256"
        },
        {
          "internalType": "uint256",
          "name": "",
          "type": "uint256"
        }
      ],
      "name": "lotteryWinners",
      "outputs": [
        {
          "internalType": "address",
          "name": "",
          "type": "address"
        }
      ],
      "stateMutability": "view",
      "type": "function"
    },
    {
      "inputs": [],
      "name": "owner",
      "outputs": [
        {
          "internalType": "address",
          "name": "",
          "type": "address"
        }
      ],
      "stateMutability": "view",
      "type": "function"
    },
    {
      "inputs": [],
      "name": "paymentToken",
      "outputs": [
        {
          "internalType": "contract IERC20",
          "name": "",
          "type": "address"
        }
      ],
      "stateMutability": "view",
      "type": "function"
    },
    {
      "inputs": [],
      "name": "purchaseTxCount",
      "outputs": [
        {
          "internalType": "uint256",
          "name": "",
          "type": "uint256"
        }
      ],
      "stateMutability": "view",
      "type": "function"
    },
    {
      "inputs": [
        {
          "internalType": "uint256",
          "name": "",
          "type": "uint256"
        },
        {
          "internalType": "uint256",
          "name": "",
          "type": "uint256"
        }
      ],
      "name": "purchaseTxs",
      "outputs": [
        {
          "internalType": "address",
          "name": "",
          "type": "address"
        }
      ],
      "stateMutability": "view",
      "type": "function"
    },
    {
      "inputs": [
        {
          "internalType": "uint256",
          "name": "lottery_no",
          "type": "uint256"
        },
        {
          "internalType": "uint256",
          "name": "sticketno",
          "type": "uint256"
        },
        {
          "internalType": "uint256",
          "name": "quantity",
          "type": "uint256"
        },
        {
          "internalType": "uint256",
          "name": "rnd_number",
          "type": "uint256"
        }
      ],
      "name": "revealRndNumberTx",
      "outputs": [],
      "stateMutability": "nonpayable",
      "type": "function"
    },
    {
      "inputs": [
        {
          "internalType": "address",
          "name": "erctokenaddr",
          "type": "address"
        }
      ],
      "name": "setPaymentToken",
      "outputs": [],
      "stateMutability": "nonpayable",
      "type": "function"
    },
    {
      "inputs": [
        {
          "internalType": "uint256",
          "name": "",
          "type": "uint256"
        },
        {
          "internalType": "address",
          "name": "",
          "type": "address"
        }
      ],
      "name": "userTickets",
      "outputs": [
        {
          "internalType": "uint256",
          "name": "ticketCount",
          "type": "uint256"
        },
        {
          "internalType": "bytes32",
          "name": "committedRandomNumber",
          "type": "bytes32"
        },
        {
          "internalType": "bool",
          "name": "revealed",
          "type": "bool"
        }
      ],
      "stateMutability": "view",
      "type": "function"
    },
    {
      "inputs": [
        {
          "internalType": "uint256",
          "name": "lottery_no",
          "type": "uint256"
        }
      ],
      "name": "withdrawTicketProceeds",
      "outputs": [],
      "stateMutability": "nonpayable",
      "type": "function"
    },
    {
      "inputs": [
        {
          "internalType": "uint256",
          "name": "lottery_no",
          "type": "uint256"
        },
        {
          "internalType": "uint256",
          "name": "sticket_no",
          "type": "uint256"
        }
      ],
      "name": "withdrawTicketRefund",
      "outputs": [],
      "stateMutability": "nonpayable",
      "type": "function"
    }
  ],
  "bytecode": "0x6080604052348015600f57600080fd5b50336000806101000a81548173ffffffffffffffffffffffffffffffffffffffff021916908373ffffffffffffffffffffffffffffffffffffffff160217905550613a318061005f6000396000f3fe608060405234801561001057600080fd5b50600436106101735760003560e01c80637df858db116100de578063b91f0ab011610097578063da28a84111610071578063da28a841146104cd578063dc969f22146104ff578063e0767cd914610530578063e54778b51461056057610173565b8063b91f0ab01461043d578063cc42a7c51461046d578063cdc2aebf1461049d57610173565b80637df858db1461035657806389b2acbc146103865780638da5cb5b146103b75780639065c335146103d5578063ad943d1e146103f1578063adc51cdb1461040d57610173565b80635b7b3d58116101305780635b7b3d581461026c5780635bddbaac1461028a578063603d3d3a146102ba578063687e47d8146102ea5780636a326ab11461030657806376b3c8a81461032257610173565b80630400f4d01461017857806312b349d5146101965780631398e076146101c657806318c773bd146102005780632458d4721461021e5780633013ce291461024e575b600080fd5b610180610590565b60405161018d9190612131565b60405180910390f35b6101b060048036038101906101ab919061218c565b610596565b6040516101bd91906121e7565b60405180910390f35b6101e060048036038101906101db9190612202565b6105ab565b6040516101f79b9a999897969594939291906122d8565b60405180910390f35b6102086106a7565b6040516102159190612131565b60405180910390f35b61023860048036038101906102339190612202565b6106ad565b6040516102459190612401565b60405180910390f35b61025661092f565b604051610263919061249b565b60405180910390f35b610274610955565b6040516102819190612131565b60405180910390f35b6102a4600480360381019061029f91906124f4565b61095f565b6040516102b191906121e7565b60405180910390f35b6102d460048036038101906102cf919061218c565b610a7b565b6040516102e19190612556565b60405180910390f35b61030460048036038101906102ff919061218c565b610ac9565b005b610320600480360381019061031b9190612571565b610cd4565b005b61033c60048036038101906103379190612202565b610da6565b60405161034d95949392919061259e565b60405180910390f35b610370600480360381019061036b9190612752565b610f15565b60405161037d9190612131565b60405180910390f35b6103a0600480360381019061039b919061218c565b611239565b6040516103ae929190612810565b60405180910390f35b6103bf61136a565b6040516103cc9190612556565b60405180910390f35b6103ef60048036038101906103ea9190612839565b61138e565b005b61040b60048036038101906104069190612202565b611533565b005b61042760048036038101906104229190612202565b611760565b6040516104349190612131565b60405180910390f35b6104576004803603810190610452919061218c565b61176c565b6040516104649190612556565b60405180910390f35b61048760048036038101906104829190612202565b6117ae565b6040516104949190612131565b60405180910390f35b6104b760048036038101906104b29190612202565b6117ce565b6040516104c49190612556565b60405180910390f35b6104e760048036038101906104e291906128a0565b6117fa565b6040516104f6939291906128e0565b60405180910390f35b61051960048036038101906105149190612202565b61183e565b604051610527929190612917565b60405180910390f35b61054a60048036038101906105459190612947565b611992565b6040516105579190612131565b60405180910390f35b61057a6004803603810190610575919061218c565b611d4d565b6040516105879190612131565b60405180910390f35b60045481565b60006105a333848461095f565b905092915050565b60016020528060005260406000206000915090508060000154908060010154908060020154908060030154908060040154908060050154908060060154908060070154908060080180546105fe906129c9565b80601f016020809104026020016040519081016040528092919081815260200182805461062a906129c9565b80156106775780601f1061064c57610100808354040283529160200191610677565b820191906000526020600020905b81548152906001019060200180831161065a57829003601f168201915b5050505050908060090160009054906101000a900460ff16908060090160019054906101000a900460ff1690508b565b60065481565b6000806001600084815260200190815260200160002060405180610160016040529081600082015481526020016001820154815260200160028201548152602001600382015481526020016004820154815260200160058201548152602001600682015481526020016007820154815260200160088201805461072f906129c9565b80601f016020809104026020016040519081016040528092919081815260200182805461075b906129c9565b80156107a85780601f1061077d576101008083540402835291602001916107a8565b820191906000526020600020905b81548152906001019060200180831161078b57829003601f168201915b505050505081526020016009820160009054906101000a900460ff161515151581526020016009820160019054906101000a900460ff16151515158152505090506108176040518060800160405280604a81526020016139b2604a913984836101200151846101400151611db0565b8061012001518061082a57508061014001515b1561083957600291505061092a565b60006002826000015183602001516108519190612a29565b61085b9190612a8c565b9050600081836020015161086f9190612a29565b90506108956040518060800160405280605081526020016138c760509139868484611e52565b8042116108c9576108bd60405180606001604052806033815260200161389460339139611ef4565b6000935050505061092a565b82602001514211610901576108f560405180606001604052806031815260200161382960319139611ef4565b6001935050505061092a565b6109226040518060600160405280602f8152602001613946602f9139611ef4565b600293505050505b919050565b600760009054906101000a900473ffffffffffffffffffffffffffffffffffffffff1681565b6000600454905090565b600080600360008581526020019081526020016000208054806020026020016040519081016040528092919081815260200182805480156109f557602002820191906000526020600020905b8160009054906101000a900473ffffffffffffffffffffffffffffffffffffffff1673ffffffffffffffffffffffffffffffffffffffff16815260200190600101908083116109ab575b5050505050905060005b8151811015610a6d578573ffffffffffffffffffffffffffffffffffffffff16828281518110610a3257610a31612abd565b5b602002602001015173ffffffffffffffffffffffffffffffffffffffff1603610a6057600192505050610a74565b80806001019150506109ff565b5060009150505b9392505050565b60036020528160005260406000208181548110610a9757600080fd5b906000526020600020016000915091509054906101000a900473ffffffffffffffffffffffffffffffffffffffff1681565b600060016000848152602001908152602001600020905060006002600085815260200190815260200160002060003373ffffffffffffffffffffffffffffffffffffffff1673ffffffffffffffffffffffffffffffffffffffff16815260200190815260200160002090508160090160009054906101000a900460ff16610b85576040517f08c379a0000000000000000000000000000000000000000000000000000000008152600401610b7c90612b38565b60405180910390fd5b6000816000015411610bcc576040517f08c379a0000000000000000000000000000000000000000000000000000000008152600401610bc390612ba4565b60405180910390fd5b600082600601548260000154610be29190612bc4565b9050600760009054906101000a900473ffffffffffffffffffffffffffffffffffffffff1673ffffffffffffffffffffffffffffffffffffffff1663a9059cbb33836040518363ffffffff1660e01b8152600401610c41929190612c06565b6020604051808303816000875af1158015610c60573d6000803e3d6000fd5b505050506040513d601f19601f82011682018060405250810190610c849190612c5b565b610cc3576040517f08c379a0000000000000000000000000000000000000000000000000000000008152600401610cba90612cd4565b60405180910390fd5b600082600001819055505050505050565b60008054906101000a900473ffffffffffffffffffffffffffffffffffffffff1673ffffffffffffffffffffffffffffffffffffffff163373ffffffffffffffffffffffffffffffffffffffff1614610d62576040517f08c379a0000000000000000000000000000000000000000000000000000000008152600401610d5990612d40565b60405180910390fd5b80600760006101000a81548173ffffffffffffffffffffffffffffffffffffffff021916908373ffffffffffffffffffffffffffffffffffffffff16021790555050565b60008060008060008060016000888152602001908152602001600020604051806101600160405290816000820154815260200160018201548152602001600282015481526020016003820154815260200160048201548152602001600582015481526020016006820154815260200160078201548152602001600882018054610e2e906129c9565b80601f0160208091040260200160405190810160405280929190818152602001828054610e5a906129c9565b8015610ea75780601f10610e7c57610100808354040283529160200191610ea7565b820191906000526020600020905b815481529060010190602001808311610e8a57829003601f168201915b505050505081526020016009820160009054906101000a900460ff161515151581526020016009820160019054906101000a900460ff16151515158152505090508060200151816040015182608001518360a001518460c00151955095509550955095505091939590929450565b60008060009054906101000a900473ffffffffffffffffffffffffffffffffffffffff1673ffffffffffffffffffffffffffffffffffffffff163373ffffffffffffffffffffffffffffffffffffffff1614610fa6576040517f08c379a0000000000000000000000000000000000000000000000000000000008152600401610f9d90612d40565b60405180910390fd5b610fc96040518060600160405280603a815260200161385a603a9139428a611f8d565b42881161100b576040517f08c379a000000000000000000000000000000000000000000000000000000000815260040161100290612dac565b60405180910390fd5b60008611801561101b5750868611155b61105a576040517f08c379a000000000000000000000000000000000000000000000000000000000815260040161105190612e18565b60405180910390fd5b60008511801561106b575060648511155b6110aa576040517f08c379a00000000000000000000000000000000000000000000000000000000081526004016110a190612eaa565b60405180910390fd5b600460008154809291906110bd90612eca565b91905055506110e66040518060600160405280602f8152602001613917602f913960045461202c565b6040518061016001604052804281526020018981526020018881526020016000815260200187815260200186815260200185815260200184815260200183815260200160001515815260200160001515815250600160006004548152602001908152602001600020600082015181600001556020820151816001015560408201518160020155606082015181600301556080820151816004015560a0820151816005015560c0820151816006015560e082015181600701556101008201518160080190816111b491906130b4565b506101208201518160090160006101000a81548160ff0219169083151502179055506101408201518160090160016101000a81548160ff0219169083151502179055509050506004547f9e0023bebcc752baaa41057318405b5a6a8e9c6372b519717cfdf238e5caa79560405160405180910390a26004549050979650505050505050565b6000806006548410611280576040517f08c379a0000000000000000000000000000000000000000000000000000000008152600401611277906131d2565b60405180910390fd5b600060056000858152602001908152602001600020600086815260200190815260200160002060009054906101000a900473ffffffffffffffffffffffffffffffffffffffff16905060006002600086815260200190815260200160002060008373ffffffffffffffffffffffffffffffffffffffff1673ffffffffffffffffffffffffffffffffffffffff16815260200190815260200160002060405180606001604052908160008201548152602001600182015481526020016002820160009054906101000a900460ff16151515158152505090508581600001519350935050509250929050565b60008054906101000a900473ffffffffffffffffffffffffffffffffffffffff1681565b600160028111156113a2576113a161238a565b5b6113ab856106ad565b60028111156113bd576113bc61238a565b5b146113fd576040517f08c379a00000000000000000000000000000000000000000000000000000000081526004016113f49061323e565b60405180910390fd5b60006002600086815260200190815260200160002060003373ffffffffffffffffffffffffffffffffffffffff1673ffffffffffffffffffffffffffffffffffffffff16815260200190815260200160002090508060020160009054906101000a900460ff16156114a3576040517f08c379a000000000000000000000000000000000000000000000000000000000815260040161149a906132aa565b60405180910390fd5b8060010154826040516020016114b991906132eb565b604051602081830303815290604052805190602001201461150f576040517f08c379a000000000000000000000000000000000000000000000000000000000815260040161150690613352565b60405180910390fd5b60018160020160006101000a81548160ff0219169083151502179055505050505050565b60008054906101000a900473ffffffffffffffffffffffffffffffffffffffff1673ffffffffffffffffffffffffffffffffffffffff163373ffffffffffffffffffffffffffffffffffffffff16146115c1576040517f08c379a00000000000000000000000000000000000000000000000000000000081526004016115b890612d40565b60405180910390fd5b60006001600083815260200190815260200160002090508060090160019054906101000a900460ff16801561160557508060090160009054906101000a900460ff16155b611644576040517f08c379a000000000000000000000000000000000000000000000000000000000815260040161163b906133be565b60405180910390fd5b60008160060154826003015461165a9190612bc4565b9050600760009054906101000a900473ffffffffffffffffffffffffffffffffffffffff1673ffffffffffffffffffffffffffffffffffffffff1663a9059cbb60008054906101000a900473ffffffffffffffffffffffffffffffffffffffff16836040518363ffffffff1660e01b81526004016116d9929190612c06565b6020604051808303816000875af11580156116f8573d6000803e3d6000fd5b505050506040513d601f19601f8201168201806040525081019061171c9190612c5b565b61175b576040517f08c379a00000000000000000000000000000000000000000000000000000000081526004016117529061342a565b60405180910390fd5b505050565b60006006549050919050565b60056020528160005260406000206020528060005260406000206000915091509054906101000a900473ffffffffffffffffffffffffffffffffffffffff1681565b600060016000838152602001908152602001600020600301549050919050565b6000600760009054906101000a900473ffffffffffffffffffffffffffffffffffffffff169050919050565b6002602052816000526040600020602052806000526040600020600091509150508060000154908060010154908060020160009054906101000a900460ff16905083565b600060606000600160008581526020019081526020016000206040518061016001604052908160008201548152602001600182015481526020016002820154815260200160038201548152602001600482015481526020016005820154815260200160068201548152602001600782015481526020016008820180546118c3906129c9565b80601f01602080910402602001604051908101604052809291908181526020018280546118ef906129c9565b801561193c5780601f106119115761010080835404028352916020019161193c565b820191906000526020600020905b81548152906001019060200180831161191f57829003601f168201915b505050505081526020016009820160009054906101000a900460ff161515151581526020016009820160019054906101000a900460ff16151515158152505090508060e001518161010001519250925050915091565b6000806001600086815260200190815260200160002090506000841180156119bb5750601e8411155b6119fa576040517f08c379a00000000000000000000000000000000000000000000000000000000081526004016119f190613496565b60405180910390fd5b8060020154848260030154611a0f91906134b6565b1115611a50576040517f08c379a0000000000000000000000000000000000000000000000000000000008152600401611a4790613536565b60405180910390fd5b8060010154421115611a97576040517f08c379a0000000000000000000000000000000000000000000000000000000008152600401611a8e906135a2565b60405180910390fd5b60006002811115611aab57611aaa61238a565b5b611ab4866106ad565b6002811115611ac657611ac561238a565b5b14611b06576040517f08c379a0000000000000000000000000000000000000000000000000000000008152600401611afd9061323e565b60405180910390fd5b611b2d6040518060600160405280603d8152602001613975603d9139428360010154611f8d565b6000816006015485611b3f9190612bc4565b9050600760009054906101000a900473ffffffffffffffffffffffffffffffffffffffff1673ffffffffffffffffffffffffffffffffffffffff166323b872dd3330846040518463ffffffff1660e01b8152600401611ba0939291906135c2565b6020604051808303816000875af1158015611bbf573d6000803e3d6000fd5b505050506040513d601f19601f82011682018060405250810190611be39190612c5b565b611c22576040517f08c379a0000000000000000000000000000000000000000000000000000000008152600401611c1990613645565b60405180910390fd5b60006002600088815260200190815260200160002060003373ffffffffffffffffffffffffffffffffffffffff1673ffffffffffffffffffffffffffffffffffffffff168152602001908152602001600020905085816000016000828254611c8a91906134b6565b9250508190555084816001018190555085836003016000828254611cae91906134b6565b9250508190555033600560008981526020019081526020016000206000600654815260200190815260200160002060006101000a81548173ffffffffffffffffffffffffffffffffffffffff021916908373ffffffffffffffffffffffffffffffffffffffff16021790555060066000815480929190611d2d90612eca565b91905055506001600654611d419190612a29565b93505050509392505050565b600060036000848152602001908152602001600020805490508210611da7576040517f08c379a0000000000000000000000000000000000000000000000000000000008152600401611d9e906136b1565b60405180910390fd5b81905092915050565b611e4c84848484604051602401611dca94939291906136d1565b6040516020818303038152906040527f354c36d6000000000000000000000000000000000000000000000000000000007bffffffffffffffffffffffffffffffffffffffffffffffffffffffff19166020820180517bffffffffffffffffffffffffffffffffffffffffffffffffffffffff83818316178352505050506120c8565b50505050565b611eee84848484604051602401611e6c949392919061371d565b6040516020818303038152906040527fa7a87853000000000000000000000000000000000000000000000000000000007bffffffffffffffffffffffffffffffffffffffffffffffffffffffff19166020820180517bffffffffffffffffffffffffffffffffffffffffffffffffffffffff83818316178352505050506120c8565b50505050565b611f8a81604051602401611f089190613769565b6040516020818303038152906040527f41304fac000000000000000000000000000000000000000000000000000000007bffffffffffffffffffffffffffffffffffffffffffffffffffffffff19166020820180517bffffffffffffffffffffffffffffffffffffffffffffffffffffffff83818316178352505050506120c8565b50565b612027838383604051602401611fa59392919061378b565b6040516020818303038152906040527fca47c4eb000000000000000000000000000000000000000000000000000000007bffffffffffffffffffffffffffffffffffffffffffffffffffffffff19166020820180517bffffffffffffffffffffffffffffffffffffffffffffffffffffffff83818316178352505050506120c8565b505050565b6120c482826040516024016120429291906137c9565b6040516020818303038152906040527fb60e72cc000000000000000000000000000000000000000000000000000000007bffffffffffffffffffffffffffffffffffffffffffffffffffffffff19166020820180517bffffffffffffffffffffffffffffffffffffffffffffffffffffffff83818316178352505050506120c8565b5050565b6120df816120d76120e2612103565b63ffffffff16565b50565b60006a636f6e736f6c652e6c6f679050600080835160208501845afa505050565b61210e819050919050565b6121166137f9565b565b6000819050919050565b61212b81612118565b82525050565b60006020820190506121466000830184612122565b92915050565b6000604051905090565b600080fd5b600080fd5b61216981612118565b811461217457600080fd5b50565b60008135905061218681612160565b92915050565b600080604083850312156121a3576121a2612156565b5b60006121b185828601612177565b92505060206121c285828601612177565b9150509250929050565b60008115159050919050565b6121e1816121cc565b82525050565b60006020820190506121fc60008301846121d8565b92915050565b60006020828403121561221857612217612156565b5b600061222684828501612177565b91505092915050565b6000819050919050565b6122428161222f565b82525050565b600081519050919050565b600082825260208201905092915050565b60005b83811015612282578082015181840152602081019050612267565b60008484015250505050565b6000601f19601f8301169050919050565b60006122aa82612248565b6122b48185612253565b93506122c4818560208601612264565b6122cd8161228e565b840191505092915050565b6000610160820190506122ee600083018e612122565b6122fb602083018d612122565b612308604083018c612122565b612315606083018b612122565b612322608083018a612122565b61232f60a0830189612122565b61233c60c0830188612122565b61234960e0830187612239565b81810361010083015261235c818661229f565b905061236c6101208301856121d8565b61237a6101408301846121d8565b9c9b505050505050505050505050565b7f4e487b7100000000000000000000000000000000000000000000000000000000600052602160045260246000fd5b600381106123ca576123c961238a565b5b50565b60008190506123db826123b9565b919050565b60006123eb826123cd565b9050919050565b6123fb816123e0565b82525050565b600060208201905061241660008301846123f2565b92915050565b600073ffffffffffffffffffffffffffffffffffffffff82169050919050565b6000819050919050565b600061246161245c6124578461241c565b61243c565b61241c565b9050919050565b600061247382612446565b9050919050565b600061248582612468565b9050919050565b6124958161247a565b82525050565b60006020820190506124b0600083018461248c565b92915050565b60006124c18261241c565b9050919050565b6124d1816124b6565b81146124dc57600080fd5b50565b6000813590506124ee816124c8565b92915050565b60008060006060848603121561250d5761250c612156565b5b600061251b868287016124df565b935050602061252c86828701612177565b925050604061253d86828701612177565b9150509250925092565b612550816124b6565b82525050565b600060208201905061256b6000830184612547565b92915050565b60006020828403121561258757612586612156565b5b6000612595848285016124df565b91505092915050565b600060a0820190506125b36000830188612122565b6125c06020830187612122565b6125cd6040830186612122565b6125da6060830185612122565b6125e76080830184612122565b9695505050505050565b6125fa8161222f565b811461260557600080fd5b50565b600081359050612617816125f1565b92915050565b600080fd5b600080fd5b7f4e487b7100000000000000000000000000000000000000000000000000000000600052604160045260246000fd5b61265f8261228e565b810181811067ffffffffffffffff8211171561267e5761267d612627565b5b80604052505050565b600061269161214c565b905061269d8282612656565b919050565b600067ffffffffffffffff8211156126bd576126bc612627565b5b6126c68261228e565b9050602081019050919050565b82818337600083830152505050565b60006126f56126f0846126a2565b612687565b90508281526020810184848401111561271157612710612622565b5b61271c8482856126d3565b509392505050565b600082601f8301126127395761273861261d565b5b81356127498482602086016126e2565b91505092915050565b600080600080600080600060e0888a03121561277157612770612156565b5b600061277f8a828b01612177565b97505060206127908a828b01612177565b96505060406127a18a828b01612177565b95505060606127b28a828b01612177565b94505060806127c38a828b01612177565b93505060a06127d48a828b01612608565b92505060c088013567ffffffffffffffff8111156127f5576127f461215b565b5b6128018a828b01612724565b91505092959891949750929550565b60006040820190506128256000830185612122565b6128326020830184612122565b9392505050565b6000806000806080858703121561285357612852612156565b5b600061286187828801612177565b945050602061287287828801612177565b935050604061288387828801612177565b925050606061289487828801612177565b91505092959194509250565b600080604083850312156128b7576128b6612156565b5b60006128c585828601612177565b92505060206128d6858286016124df565b9150509250929050565b60006060820190506128f56000830186612122565b6129026020830185612239565b61290f60408301846121d8565b949350505050565b600060408201905061292c6000830185612239565b818103602083015261293e818461229f565b90509392505050565b6000806000606084860312156129605761295f612156565b5b600061296e86828701612177565b935050602061297f86828701612177565b925050604061299086828701612608565b9150509250925092565b7f4e487b7100000000000000000000000000000000000000000000000000000000600052602260045260246000fd5b600060028204905060018216806129e157607f821691505b6020821081036129f4576129f361299a565b5b50919050565b7f4e487b7100000000000000000000000000000000000000000000000000000000600052601160045260246000fd5b6000612a3482612118565b9150612a3f83612118565b9250828203905081811115612a5757612a566129fa565b5b92915050565b7f4e487b7100000000000000000000000000000000000000000000000000000000600052601260045260246000fd5b6000612a9782612118565b9150612aa283612118565b925082612ab257612ab1612a5d565b5b828204905092915050565b7f4e487b7100000000000000000000000000000000000000000000000000000000600052603260045260246000fd5b7f4c6f7474657279206e6f742063616e63656c6564000000000000000000000000600082015250565b6000612b22601483612253565b9150612b2d82612aec565b602082019050919050565b60006020820190508181036000830152612b5181612b15565b9050919050565b7f4e6f207469636b65747320746f20726566756e64000000000000000000000000600082015250565b6000612b8e601483612253565b9150612b9982612b58565b602082019050919050565b60006020820190508181036000830152612bbd81612b81565b9050919050565b6000612bcf82612118565b9150612bda83612118565b9250828202612be881612118565b91508282048414831517612bff57612bfe6129fa565b5b5092915050565b6000604082019050612c1b6000830185612547565b612c286020830184612122565b9392505050565b612c38816121cc565b8114612c4357600080fd5b50565b600081519050612c5581612c2f565b92915050565b600060208284031215612c7157612c70612156565b5b6000612c7f84828501612c46565b91505092915050565b7f526566756e64206661696c656400000000000000000000000000000000000000600082015250565b6000612cbe600d83612253565b9150612cc982612c88565b602082019050919050565b60006020820190508181036000830152612ced81612cb1565b9050919050565b7f4e6f7420746865206f776e657200000000000000000000000000000000000000600082015250565b6000612d2a600d83612253565b9150612d3582612cf4565b602082019050919050565b60006020820190508181036000830152612d5981612d1d565b9050919050565b7f456e642074696d65206d75737420626520696e20746865206675747572650000600082015250565b6000612d96601e83612253565b9150612da182612d60565b602082019050919050565b60006020820190508181036000830152612dc581612d89565b9050919050565b7f496e76616c69642077696e6e65727320636f756e740000000000000000000000600082015250565b6000612e02601583612253565b9150612e0d82612dcc565b602082019050919050565b60006020820190508181036000830152612e3181612df5565b9050919050565b7f496e76616c6964206d696e696d756d207469636b65742070657263656e74616760008201527f6500000000000000000000000000000000000000000000000000000000000000602082015250565b6000612e94602183612253565b9150612e9f82612e38565b604082019050919050565b60006020820190508181036000830152612ec381612e87565b9050919050565b6000612ed582612118565b91507fffffffffffffffffffffffffffffffffffffffffffffffffffffffffffffffff8203612f0757612f066129fa565b5b600182019050919050565b60008190508160005260206000209050919050565b60006020601f8301049050919050565b600082821b905092915050565b600060088302612f747fffffffffffffffffffffffffffffffffffffffffffffffffffffffffffffffff82612f37565b612f7e8683612f37565b95508019841693508086168417925050509392505050565b6000612fb1612fac612fa784612118565b61243c565b612118565b9050919050565b6000819050919050565b612fcb83612f96565b612fdf612fd782612fb8565b848454612f44565b825550505050565b600090565b612ff4612fe7565b612fff818484612fc2565b505050565b5b8181101561302357613018600082612fec565b600181019050613005565b5050565b601f8211156130685761303981612f12565b61304284612f27565b81016020851015613051578190505b61306561305d85612f27565b830182613004565b50505b505050565b600082821c905092915050565b600061308b6000198460080261306d565b1980831691505092915050565b60006130a4838361307a565b9150826002028217905092915050565b6130bd82612248565b67ffffffffffffffff8111156130d6576130d5612627565b5b6130e082546129c9565b6130eb828285613027565b600060209050601f83116001811461311e576000841561310c578287015190505b6131168582613098565b86555061317e565b601f19841661312c86612f12565b60005b828110156131545784890151825560018201915060208501945060208101905061312f565b86831015613171578489015161316d601f89168261307a565b8355505b6001600288020188555050505b505050505050565b7f496e76616c6964207472616e73616374696f6e20696e64657800000000000000600082015250565b60006131bc601983612253565b91506131c782613186565b602082019050919050565b600060208201905081810360008301526131eb816131af565b9050919050565b7f496e76616c6964206c6f74746572792073746167650000000000000000000000600082015250565b6000613228601583612253565b9150613233826131f2565b602082019050919050565b600060208201905081810360008301526132578161321b565b9050919050565b7f416c72656164792072657665616c656400000000000000000000000000000000600082015250565b6000613294601083612253565b915061329f8261325e565b602082019050919050565b600060208201905081810360008301526132c381613287565b9050919050565b6000819050919050565b6132e56132e082612118565b6132ca565b82525050565b60006132f782846132d4565b60208201915081905092915050565b7f496e76616c69642072657665616c000000000000000000000000000000000000600082015250565b600061333c600e83612253565b915061334782613306565b602082019050919050565b6000602082019050818103600083015261336b8161332f565b9050919050565b7f4c6f7474657279206e6f7420656c696769626c65000000000000000000000000600082015250565b60006133a8601483612253565b91506133b382613372565b602082019050919050565b600060208201905081810360008301526133d78161339b565b9050919050565b7f50726f6365656473207472616e73666572206661696c65640000000000000000600082015250565b6000613414601883612253565b915061341f826133de565b602082019050919050565b6000602082019050818103600083015261344381613407565b9050919050565b7f496e76616c6964207469636b657420636f756e74000000000000000000000000600082015250565b6000613480601483612253565b915061348b8261344a565b602082019050919050565b600060208201905081810360008301526134af81613473565b9050919050565b60006134c182612118565b91506134cc83612118565b92508282019050808211156134e4576134e36129fa565b5b92915050565b7f4578636565647320746f74616c207469636b6574730000000000000000000000600082015250565b6000613520601583612253565b915061352b826134ea565b602082019050919050565b6000602082019050818103600083015261354f81613513565b9050919050565b7f4c6f747465727920656e64656400000000000000000000000000000000000000600082015250565b600061358c600d83612253565b915061359782613556565b602082019050919050565b600060208201905081810360008301526135bb8161357f565b9050919050565b60006060820190506135d76000830186612547565b6135e46020830185612547565b6135f16040830184612122565b949350505050565b7f5061796d656e74206661696c6564000000000000000000000000000000000000600082015250565b600061362f600e83612253565b915061363a826135f9565b602082019050919050565b6000602082019050818103600083015261365e81613622565b9050919050565b7f496e76616c69642077696e6e657220696e646578000000000000000000000000600082015250565b600061369b601483612253565b91506136a682613665565b602082019050919050565b600060208201905081810360008301526136ca8161368e565b9050919050565b600060808201905081810360008301526136eb818761229f565b90506136fa6020830186612122565b61370760408301856121d8565b61371460608301846121d8565b95945050505050565b60006080820190508181036000830152613737818761229f565b90506137466020830186612122565b6137536040830185612122565b6137606060830184612122565b95945050505050565b60006020820190508181036000830152613783818461229f565b905092915050565b600060608201905081810360008301526137a5818661229f565b90506137b46020830185612122565b6137c16040830184612122565b949350505050565b600060408201905081810360008301526137e3818561229f565b90506137f26020830184612122565b9392505050565b7f4e487b7100000000000000000000000000000000000000000000000000000000600052605160045260246000fdfe5b636f6e74726163745d205b67657443757272656e7453746167655d2072657475726e65642052657665616c53746167655b636f6e74726163745d205b6372656174654c6f74746572795d20626c6f636b2e74696d657374616d703a20256420756e6978656e643a2025645b636f6e74726163745d205b67657443757272656e7453746167655d2072657475726e656420507572636861736553746167655b636f6e74726163745d205b67657443757272656e7453746167655d206c6f747465727949643a2025642068616c664475726174696f6e3a2025642070757263686173655374616765456e643a2025645b636f6e74726163745d205b6372656174654c6f74746572795d2063757272656e744c6f74746572794e6f3a2025645b636f6e74726163745d205b67657443757272656e7453746167655d2072657475726e65642046696e616c697a65645b636f6e74726163745d205b6275795469636b657454785d2063616c6c20626c6f636b2e74696d657374616d703a20256420656e6454696d653a2025645b636f6e74726163745d205b67657443757272656e7453746167655d206c6f747465727949643a20256420697343616e63656c6c65643a20256420697346696e616c697a65643a202564a2646970667358221220518b92b3e544f7f0951fe4a3338dfaabf74a1184a6223f2ec0cb419a97f33e4464736f6c634300081b0033",
  "linkReferences": {},
  "deployedLinkReferences": {}
}