{
  "_format": "hh-sol-artifact-1",
  "contractName": "LotteryViewFacet",
  "sourceName": "contracts/LotteryViewFacet.sol",
  "abi": [
    {
      "inputs": [
        {
          "internalType": "address",
          "name": "addr",
          "type": "address"
        },
        {
          "internalType": "uint256",
          "name": "lottery_no",
          "type": "uint256"
        },
        {
          "internalType": "uint256",
          "name": "ticket_no",
          "type": "uint256"
        }
      ],
      "name": "checkIfAddrTicketWon",
      "outputs": [
        {
          "internalType": "bool",
          "name": "",
          "type": "bool"
        }
      ],
      "stateMutability": "view",
      "type": "function"
    },
    {
      "inputs": [
        {
          "internalType": "uint256",
          "name": "lottery_no",
          "type": "uint256"
        },
        {
          "internalType": "uint256",
          "name": "ticket_no",
          "type": "uint256"
        }
      ],
      "name": "checkIfMyTicketWon",
      "outputs": [
        {
          "internalType": "bool",
          "name": "",
          "type": "bool"
        }
      ],
      "stateMutability": "view",
      "type": "function"
    },
    {
      "inputs": [],
      "name": "getCurrentLotteryNo",
      "outputs": [
        {
          "internalType": "uint256",
          "name": "",
          "type": "uint256"
        }
      ],
      "stateMutability": "view",
      "type": "function"
    },
    {
      "inputs": [
        {
          "internalType": "uint256",
          "name": "lottery_no",
          "type": "uint256"
        }
      ],
      "name": "getLotteryInfo",
      "outputs": [
        {
          "internalType": "uint256",
          "name": "unixend",
          "type": "uint256"
        },
        {
          "internalType": "uint256",
          "name": "nooftickets",
          "type": "uint256"
        },
        {
          "internalType": "uint256",
          "name": "noofwinners",
          "type": "uint256"
        },
        {
          "internalType": "uint256",
          "name": "minpercentage",
          "type": "uint256"
        },
        {
          "internalType": "uint256",
          "name": "ticketprice",
          "type": "uint256"
        }
      ],
      "stateMutability": "view",
      "type": "function"
    },
    {
      "inputs": [
        {
          "internalType": "uint256",
          "name": "lottery_no",
          "type": "uint256"
        }
      ],
      "name": "getLotterySales",
      "outputs": [
        {
          "internalType": "uint256",
          "name": "",
          "type": "uint256"
        }
      ],
      "stateMutability": "view",
      "type": "function"
    },
    {
      "inputs": [
        {
          "internalType": "uint256",
          "name": "lottery_no",
          "type": "uint256"
        }
      ],
      "name": "getLotteryURL",
      "outputs": [
        {
          "internalType": "bytes32",
          "name": "htmlhash",
          "type": "bytes32"
        },
        {
          "internalType": "string",
          "name": "url",
          "type": "string"
        }
      ],
      "stateMutability": "view",
      "type": "function"
    },
    {
      "inputs": [
        {
          "internalType": "uint256",
          "name": "lottery_no",
          "type": "uint256"
        }
      ],
      "name": "getNumPurchaseTxs",
      "outputs": [
        {
          "internalType": "uint256",
          "name": "",
          "type": "uint256"
        }
      ],
      "stateMutability": "view",
      "type": "function"
    }
  ],
  "bytecode": "0x608060405234801561001057600080fd5b50610981806100206000396000f3fe608060405234801561001057600080fd5b506004361061007d5760003560e01c806376b3c8a81161005b57806376b3c8a814610100578063adc51cdb14610134578063cc42a7c514610164578063dc969f22146101945761007d565b806312b349d5146100825780635b7b3d58146100b25780635bddbaac146100d0575b600080fd5b61009c600480360381019061009791906104fc565b6101c5565b6040516100a99190610557565b60405180910390f35b6100ba61024d565b6040516100c79190610581565b60405180910390f35b6100ea60048036038101906100e591906105fa565b610260565b6040516100f79190610557565b60405180910390f35b61011a6004803603810190610115919061064d565b610333565b60405161012b95949392919061067a565b60405180910390f35b61014e6004803603810190610149919061064d565b61038d565b60405161015b9190610581565b60405180910390f35b61017e6004803603810190610179919061064d565b6103a2565b60405161018b9190610581565b60405180910390f35b6101ae60048036038101906101a9919061064d565b6103cb565b6040516101bc929190610776565b60405180910390f35b60003073ffffffffffffffffffffffffffffffffffffffff16635bddbaac3385856040518463ffffffff1660e01b8152600401610204939291906107b5565b602060405180830381865afa158015610221573d6000803e3d6000fd5b505050506040513d601f19601f820116820180604052508101906102459190610818565b905092915050565b6000610257610494565b60010154905090565b60008061026b610494565b90506000816005016000868152602001908152602001600020905060005b8180549050811015610324578673ffffffffffffffffffffffffffffffffffffffff168282815481106102bf576102be610845565b5b9060005260206000200160009054906101000a900473ffffffffffffffffffffffffffffffffffffffff1673ffffffffffffffffffffffffffffffffffffffff1603610311576001935050505061032c565b808061031c906108a3565b915050610289565b506000925050505b9392505050565b600080600080600080610344610494565b9050600081600301600089815260200190815260200160002090508060010154816002015482600401548360050154846006015496509650965096509650505091939590929450565b6000610397610494565b600701549050919050565b60006103ac610494565b6003016000838152602001908152602001600020600301549050919050565b6000606060006103d9610494565b9050600081600301600086815260200190815260200160002090508060070154816008018080546104099061091a565b80601f01602080910402602001604051908101604052809291908181526020018280546104359061091a565b80156104825780601f1061045757610100808354040283529160200191610482565b820191906000526020600020905b81548152906001019060200180831161046557829003601f168201915b50505050509050935093505050915091565b6000807f21f0097f3705b0fcf08c9e85ce553e82392510f6683a61f1805c5f376be88a5d90508091505090565b600080fd5b6000819050919050565b6104d9816104c6565b81146104e457600080fd5b50565b6000813590506104f6816104d0565b92915050565b60008060408385031215610513576105126104c1565b5b6000610521858286016104e7565b9250506020610532858286016104e7565b9150509250929050565b60008115159050919050565b6105518161053c565b82525050565b600060208201905061056c6000830184610548565b92915050565b61057b816104c6565b82525050565b60006020820190506105966000830184610572565b92915050565b600073ffffffffffffffffffffffffffffffffffffffff82169050919050565b60006105c78261059c565b9050919050565b6105d7816105bc565b81146105e257600080fd5b50565b6000813590506105f4816105ce565b92915050565b600080600060608486031215610613576106126104c1565b5b6000610621868287016105e5565b9350506020610632868287016104e7565b9250506040610643868287016104e7565b9150509250925092565b600060208284031215610663576106626104c1565b5b6000610671848285016104e7565b91505092915050565b600060a08201905061068f6000830188610572565b61069c6020830187610572565b6106a96040830186610572565b6106b66060830185610572565b6106c36080830184610572565b9695505050505050565b6000819050919050565b6106e0816106cd565b82525050565b600081519050919050565b600082825260208201905092915050565b60005b83811015610720578082015181840152602081019050610705565b60008484015250505050565b6000601f19601f8301169050919050565b6000610748826106e6565b61075281856106f1565b9350610762818560208601610702565b61076b8161072c565b840191505092915050565b600060408201905061078b60008301856106d7565b818103602083015261079d818461073d565b90509392505050565b6107af816105bc565b82525050565b60006060820190506107ca60008301866107a6565b6107d76020830185610572565b6107e46040830184610572565b949350505050565b6107f58161053c565b811461080057600080fd5b50565b600081519050610812816107ec565b92915050565b60006020828403121561082e5761082d6104c1565b5b600061083c84828501610803565b91505092915050565b7f4e487b7100000000000000000000000000000000000000000000000000000000600052603260045260246000fd5b7f4e487b7100000000000000000000000000000000000000000000000000000000600052601160045260246000fd5b60006108ae826104c6565b91507fffffffffffffffffffffffffffffffffffffffffffffffffffffffffffffffff82036108e0576108df610874565b5b600182019050919050565b7f4e487b7100000000000000000000000000000000000000000000000000000000600052602260045260246000fd5b6000600282049050600182168061093257607f821691505b602082108103610945576109446108eb565b5b5091905056fea26469706673582212209f9e5d9838a9e9c877b2e961de00f6b0b3bcdd0f6f9e97e37147d8c39fd6165564736f6c63430008140033",
  "linkReferences": {},
  "deployedLinkReferences": {}
}